{
  "abi": [
    {
      "inputs": [],
      "stateMutability": "nonpayable",
      "type": "constructor"
    },
    {
      "anonymous": false,
      "inputs": [
        {
          "indexed": true,
          "internalType": "address",
          "name": "owner",
          "type": "address"
        },
        {
          "indexed": true,
          "internalType": "address",
          "name": "approved",
          "type": "address"
        },
        {
          "indexed": true,
          "internalType": "uint256",
          "name": "tokenId",
          "type": "uint256"
        }
      ],
      "name": "Approval",
      "type": "event"
    },
    {
      "anonymous": false,
      "inputs": [
        {
          "indexed": true,
          "internalType": "address",
          "name": "owner",
          "type": "address"
        },
        {
          "indexed": true,
          "internalType": "address",
          "name": "operator",
          "type": "address"
        },
        {
          "indexed": false,
          "internalType": "bool",
          "name": "approved",
          "type": "bool"
        }
      ],
      "name": "ApprovalForAll",
      "type": "event"
    },
    {
      "anonymous": false,
      "inputs": [
        {
          "indexed": false,
          "internalType": "uint256",
          "name": "happiness",
          "type": "uint256"
        },
        {
          "indexed": false,
          "internalType": "uint256",
          "name": "hunger",
          "type": "uint256"
        },
        {
          "indexed": false,
          "internalType": "uint256",
          "name": "enrichment",
          "type": "uint256"
        },
        {
          "indexed": false,
          "internalType": "uint256",
          "name": "checked",
          "type": "uint256"
        },
        {
          "indexed": false,
          "internalType": "string",
          "name": "uri",
          "type": "string"
        },
        {
          "indexed": false,
          "internalType": "uint256",
          "name": "index",
          "type": "uint256"
        }
      ],
      "name": "CatUpdated",
      "type": "event"
    },
    {
      "anonymous": false,
      "inputs": [
        {
          "indexed": true,
          "internalType": "address",
          "name": "from",
          "type": "address"
        },
        {
          "indexed": true,
          "internalType": "address",
          "name": "to",
          "type": "address"
        },
        {
          "indexed": true,
          "internalType": "uint256",
          "name": "tokenId",
          "type": "uint256"
        }
      ],
      "name": "Transfer",
      "type": "event"
    },
    {
      "inputs": [
        {
          "internalType": "address",
          "name": "to",
          "type": "address"
        },
        {
          "internalType": "uint256",
          "name": "tokenId",
          "type": "uint256"
        }
      ],
      "name": "approve",
      "outputs": [],
      "stateMutability": "nonpayable",
      "type": "function"
    },
    {
      "inputs": [
        {
          "internalType": "address",
          "name": "owner",
          "type": "address"
        }
      ],
      "name": "balanceOf",
      "outputs": [
        {
          "internalType": "uint256",
          "name": "",
          "type": "uint256"
        }
      ],
      "stateMutability": "view",
      "type": "function"
    },
    {
      "inputs": [
        {
          "internalType": "address",
          "name": "",
          "type": "address"
        }
      ],
      "name": "catHolders",
      "outputs": [
        {
          "internalType": "uint256",
          "name": "",
          "type": "uint256"
        }
      ],
      "stateMutability": "view",
      "type": "function"
    },
    {
      "inputs": [
        {
          "internalType": "uint256",
          "name": "",
          "type": "uint256"
        }
      ],
      "name": "catOwnerAttributes",
      "outputs": [
        {
          "internalType": "uint256",
          "name": "gotchiIndex",
          "type": "uint256"
        },
        {
          "internalType": "string",
          "name": "imageURI",
          "type": "string"
        },
        {
          "internalType": "uint256",
          "name": "happiness",
          "type": "uint256"
        },
        {
          "internalType": "uint256",
          "name": "hunger",
          "type": "uint256"
        },
        {
          "internalType": "uint256",
          "name": "enrichment",
          "type": "uint256"
        },
        {
          "internalType": "uint256",
          "name": "lastChecked",
          "type": "uint256"
        }
      ],
      "stateMutability": "view",
      "type": "function"
    },
    {
      "inputs": [],
      "name": "checkUpkeep",
      "outputs": [
        {
          "internalType": "bool",
          "name": "upkeepNeeded",
          "type": "bool"
        }
      ],
      "stateMutability": "view",
      "type": "function"
    },
    {
      "inputs": [],
      "name": "feed",
      "outputs": [],
      "stateMutability": "nonpayable",
      "type": "function"
    },
    {
      "inputs": [
        {
          "internalType": "uint256",
          "name": "tokenId",
          "type": "uint256"
        }
      ],
      "name": "getApproved",
      "outputs": [
        {
          "internalType": "address",
          "name": "",
          "type": "address"
        }
      ],
      "stateMutability": "view",
      "type": "function"
    },
    {
      "inputs": [
        {
          "internalType": "uint256",
          "name": "_tokenId",
          "type": "uint256"
        }
      ],
      "name": "gotchiStats",
      "outputs": [
        {
          "internalType": "uint256",
          "name": "",
          "type": "uint256"
        },
        {
          "internalType": "uint256",
          "name": "",
          "type": "uint256"
        },
        {
          "internalType": "uint256",
          "name": "",
          "type": "uint256"
        },
        {
          "internalType": "uint256",
          "name": "",
          "type": "uint256"
        },
        {
          "internalType": "string",
          "name": "",
          "type": "string"
        }
      ],
      "stateMutability": "view",
      "type": "function"
    },
    {
      "inputs": [
        {
          "internalType": "address",
          "name": "owner",
          "type": "address"
        },
        {
          "internalType": "address",
          "name": "operator",
          "type": "address"
        }
      ],
      "name": "isApprovedForAll",
      "outputs": [
        {
          "internalType": "bool",
          "name": "",
          "type": "bool"
        }
      ],
      "stateMutability": "view",
      "type": "function"
    },
    {
      "inputs": [],
      "name": "myGotchi",
      "outputs": [
        {
          "internalType": "uint256",
          "name": "",
          "type": "uint256"
        },
        {
          "internalType": "uint256",
          "name": "",
          "type": "uint256"
        },
        {
          "internalType": "uint256",
          "name": "",
          "type": "uint256"
        },
        {
          "internalType": "uint256",
          "name": "",
          "type": "uint256"
        },
        {
          "internalType": "string",
          "name": "",
          "type": "string"
        }
      ],
      "stateMutability": "view",
      "type": "function"
    },
    {
      "inputs": [],
      "name": "name",
      "outputs": [
        {
          "internalType": "string",
          "name": "",
          "type": "string"
        }
      ],
      "stateMutability": "view",
      "type": "function"
    },
    {
      "inputs": [
        {
          "internalType": "uint256",
          "name": "tokenId",
          "type": "uint256"
        }
      ],
      "name": "ownerOf",
      "outputs": [
        {
          "internalType": "address",
          "name": "",
          "type": "address"
        }
      ],
      "stateMutability": "view",
      "type": "function"
    },
    {
      "inputs": [
        {
          "internalType": "uint256",
          "name": "_tokenId",
          "type": "uint256"
        }
      ],
      "name": "passTime",
      "outputs": [],
      "stateMutability": "nonpayable",
      "type": "function"
    },
    {
      "inputs": [],
      "name": "performUpkeep",
      "outputs": [],
      "stateMutability": "nonpayable",
      "type": "function"
    },
    {
      "inputs": [],
      "name": "play",
      "outputs": [],
      "stateMutability": "nonpayable",
      "type": "function"
    },
    {
      "inputs": [
        {
          "internalType": "address",
          "name": "to",
          "type": "address"
        }
      ],
      "name": "safeMint",
      "outputs": [],
      "stateMutability": "nonpayable",
      "type": "function"
    },
    {
      "inputs": [
        {
          "internalType": "address",
          "name": "from",
          "type": "address"
        },
        {
          "internalType": "address",
          "name": "to",
          "type": "address"
        },
        {
          "internalType": "uint256",
          "name": "tokenId",
          "type": "uint256"
        }
      ],
      "name": "safeTransferFrom",
      "outputs": [],
      "stateMutability": "nonpayable",
      "type": "function"
    },
    {
      "inputs": [
        {
          "internalType": "address",
          "name": "from",
          "type": "address"
        },
        {
          "internalType": "address",
          "name": "to",
          "type": "address"
        },
        {
          "internalType": "uint256",
          "name": "tokenId",
          "type": "uint256"
        },
        {
          "internalType": "bytes",
          "name": "_data",
          "type": "bytes"
        }
      ],
      "name": "safeTransferFrom",
      "outputs": [],
      "stateMutability": "nonpayable",
      "type": "function"
    },
    {
      "inputs": [
        {
          "internalType": "address",
          "name": "operator",
          "type": "address"
        },
        {
          "internalType": "bool",
          "name": "approved",
          "type": "bool"
        }
      ],
      "name": "setApprovalForAll",
      "outputs": [],
      "stateMutability": "nonpayable",
      "type": "function"
    },
    {
      "inputs": [
        {
          "internalType": "bytes4",
          "name": "interfaceId",
          "type": "bytes4"
        }
      ],
      "name": "supportsInterface",
      "outputs": [
        {
          "internalType": "bool",
          "name": "",
          "type": "bool"
        }
      ],
      "stateMutability": "view",
      "type": "function"
    },
    {
      "inputs": [],
      "name": "symbol",
      "outputs": [
        {
          "internalType": "string",
          "name": "",
          "type": "string"
        }
      ],
      "stateMutability": "view",
      "type": "function"
    },
    {
      "inputs": [
        {
          "internalType": "uint256",
          "name": "_tokenId",
          "type": "uint256"
        }
      ],
      "name": "tokenURI",
      "outputs": [
        {
          "internalType": "string",
          "name": "",
          "type": "string"
        }
      ],
      "stateMutability": "view",
      "type": "function"
    },
    {
      "inputs": [
        {
          "internalType": "address",
          "name": "from",
          "type": "address"
        },
        {
          "internalType": "address",
          "name": "to",
          "type": "address"
        },
        {
          "internalType": "uint256",
          "name": "tokenId",
          "type": "uint256"
        }
      ],
      "name": "transferFrom",
      "outputs": [],
      "stateMutability": "nonpayable",
      "type": "function"
    }
  ],
  "bytecode": {
    "object": "0x610180604052603b6101208181526080918291906200273c6101403981526020016040518060600160405280603b815260200162002701603b913981526020016040518060600160405280603b8152602001620026c6603b913981526020016040518060600160405280603b815260200162002777603b913981526020016040518060600160405280603b81526020016200268b603b91399052620000a99060079060056200013c565b50603c600b55348015620000bc57600080fd5b5060405180604001604052806007815260200166105c989a50d85d60ca1b8152506040518060400160405280601881526020017f417262697472756d2773204669727374205065742043617400000000000000008152508160009081620001249190620002b8565b506001620001338282620002b8565b50505062000384565b82805482825590600052602060002090810192821562000187579160200282015b82811115620001875782518290620001769082620002b8565b50916020019190600101906200015d565b506200019592915062000199565b5090565b8082111562000195576000620001b08282620001ba565b5060010162000199565b508054620001c89062000229565b6000825580601f10620001d9575050565b601f016020900490600052602060002090810190620001f99190620001fc565b50565b5b80821115620001955760008155600101620001fd565b634e487b7160e01b600052604160045260246000fd5b600181811c908216806200023e57607f821691505b6020821081036200025f57634e487b7160e01b600052602260045260246000fd5b50919050565b601f821115620002b357600081815260208120601f850160051c810160208610156200028e5750805b601f850160051c820191505b81811015620002af578281556001016200029a565b5050505b505050565b81516001600160401b03811115620002d457620002d462000213565b620002ec81620002e5845462000229565b8462000265565b602080601f8311600181146200032457600084156200030b5750858301515b600019600386901b1c1916600185901b178555620002af565b600085815260208120601f198616915b82811015620003555788860151825594840194600190910190840162000334565b5085821015620003745787850151600019600388901b60f8161c191681555b5050505050600190811b01905550565b6122f780620003946000396000f3fe608060405234801561001057600080fd5b506004361061014d5760003560e01c80636e4d243a116100c3578063b09d662a1161007c578063b09d662a146102c0578063b88d4fde146102d3578063bee437ed146102e6578063c87b56dd146102ee578063cabaee0614610301578063e985e9c51461032157600080fd5b80636e4d243a1461026c57806370a082311461027457806393e84cd91461029557806395d89b411461029d578063a13abdad146102a5578063a22cb465146102ad57600080fd5b806323b872dd1161011557806323b872dd146101f4578063341476451461020757806337a7b7d81461022b57806340d097c31461023357806342842e0e146102465780636352211e1461025957600080fd5b806301ffc9a71461015257806306fdde031461017a578063081812fc1461018f57806308ae9f60146101ba578063095ea7b3146101df575b600080fd5b610165610160366004611a29565b61035d565b60405190151581526020015b60405180910390f35b6101826103af565b6040516101719190611aa5565b6101a261019d366004611ab8565b610441565b6040516001600160a01b039091168152602001610171565b6101cd6101c8366004611ab8565b6104db565b60405161017196959493929190611ad1565b6101f26101ed366004611b2b565b610598565b005b6101f2610202366004611b55565b6106ad565b61021a610215366004611ab8565b6106de565b604051610171959493929190611b91565b6101f26107b5565b6101f2610241366004611bc7565b610820565b6101f2610254366004611b55565b6109e1565b6101a2610267366004611ab8565b6109fc565b6101f2610a73565b610287610282366004611bc7565b610b13565b604051908152602001610171565b6101f2610b99565b610182610bd2565b610165610be1565b6101f26102bb366004611be2565b610c4c565b6101f26102ce366004611ab8565b610c5b565b6101f26102e1366004611c34565b610cc4565b61021a610cfc565b6101826102fc366004611ab8565b610d2f565b61028761030f366004611bc7565b600a6020526000908152604090205481565b61016561032f366004611d10565b6001600160a01b03918216600090815260056020908152604080832093909416825291909152205460ff1690565b60006001600160e01b031982166380ac58cd60e01b148061038e57506001600160e01b03198216635b5e139f60e01b145b806103a957506301ffc9a760e01b6001600160e01b03198316145b92915050565b6060600080546103be90611d43565b80601f01602080910402602001604051908101604052809291908181526020018280546103ea90611d43565b80156104375780601f1061040c57610100808354040283529160200191610437565b820191906000526020600020905b81548152906001019060200180831161041a57829003601f168201915b5050505050905090565b6000818152600260205260408120546001600160a01b03166104bf5760405162461bcd60e51b815260206004820152602c60248201527f4552433732313a20617070726f76656420717565727920666f72206e6f6e657860448201526b34b9ba32b73a103a37b5b2b760a11b60648201526084015b60405180910390fd5b506000908152600460205260409020546001600160a01b031690565b600960205260009081526040902080546001820180549192916104fd90611d43565b80601f016020809104026020016040519081016040528092919081815260200182805461052990611d43565b80156105765780601f1061054b57610100808354040283529160200191610576565b820191906000526020600020905b81548152906001019060200180831161055957829003601f168201915b5050505050908060020154908060030154908060040154908060050154905086565b60006105a3826109fc565b9050806001600160a01b0316836001600160a01b0316036106105760405162461bcd60e51b815260206004820152602160248201527f4552433732313a20617070726f76616c20746f2063757272656e74206f776e656044820152603960f91b60648201526084016104b6565b336001600160a01b038216148061062c575061062c813361032f565b61069e5760405162461bcd60e51b815260206004820152603860248201527f4552433732313a20617070726f76652063616c6c6572206973206e6f74206f7760448201527f6e6572206e6f7220617070726f76656420666f7220616c6c000000000000000060648201526084016104b6565b6106a88383610ea0565b505050565b6106b73382610f0e565b6106d35760405162461bcd60e51b81526004016104b690611d7d565b6106a8838383611005565b600081815260096020526040812060028101546003820154600483015460058401546001909401805486958695869560609591949093919291819061072290611d43565b80601f016020809104026020016040519081016040528092919081815260200182805461074e90611d43565b801561079b5780601f106107705761010080835404028352916020019161079b565b820191906000526020600020905b81548152906001019060200180831161077e57829003601f168201915b505050505090509450945094509450945091939590929450565b336000908152600a602090815260408083205480845260099092529091206064600382018190556004909101546002916107ef9190611de4565b6107f99190611e12565b600082815260096020526040902060020155610814816111a1565b61081d81611488565b50565b336000908152600a60205260409020541561086f5760405162461bcd60e51b815260206004820152600f60248201526e312063617420617420612074696d6560881b60448201526064016104b6565b600061087a60085490565b905061088a600880546001019055565b61089482826114ee565b600060076000815481106108aa576108aa611e26565b9060005260206000200180546108bf90611d43565b80601f01602080910402602001604051908101604052809291908181526020018280546108eb90611d43565b80156109385780601f1061090d57610100808354040283529160200191610938565b820191906000526020600020905b81548152906001019060200180831161091b57829003601f168201915b50506040805160c081018252878152602080820187815260648385018190526060840181905260808401524260a084015260008a8152600990925292902081518155915195965094909350600184019250610994915082611e8a565b506040828101516002830155606083015160038301556080830151600483015560a090920151600590910155336000908152600a602052208290556106a8826109dc81610d2f565b611508565b6106a883838360405180602001604052806000815250610cc4565b6000818152600260205260408120546001600160a01b0316806103a95760405162461bcd60e51b815260206004820152602960248201527f4552433732313a206f776e657220717565727920666f72206e6f6e657869737460448201526832b73a103a37b5b2b760b91b60648201526084016104b6565b6000805260096020527fec8156718a8372b1db44bb411437d0870f3e3790d4a08526d024ce1b0b668f70547fec8156718a8372b1db44bb411437d0870f3e3790d4a08526d024ce1b0b668f6d5415801590610ad85750600b54610ad68242611f4a565b115b1561081d5760008080526009602052427fec8156718a8372b1db44bb411437d0870f3e3790d4a08526d024ce1b0b668f705561081d90610c5b565b60006001600160a01b038216610b7d5760405162461bcd60e51b815260206004820152602960248201527f4552433732313a2061646472657373207a65726f206973206e6f7420612076616044820152683634b21037bbb732b960b91b60648201526084016104b6565b506001600160a01b031660009081526003602052604090205490565b336000908152600a602090815260408083205480845260099092529091206064600482018190556003909101546002916107ef91611de4565b6060600180546103be90611d43565b600080805260096020527fec8156718a8372b1db44bb411437d0870f3e3790d4a08526d024ce1b0b668f70547fec8156718a8372b1db44bb411437d0870f3e3790d4a08526d024ce1b0b668f6d5415801590610c465750603c610c448242611f4a565b115b91505090565b610c5733838361159b565b5050565b600081815260096020526040902060030154610c7990600a90611f4a565b6000828152600960205260409020600381019190915560040154610c9f90600a90611f4a565b600082815260096020526040902060048101829055600301546002916107ef91611de4565b610cce3383610f0e565b610cea5760405162461bcd60e51b81526004016104b690611d7d565b610cf684848484611669565b50505050565b336000908152600a6020526040812054819081908190606090610d1e906106de565b945094509450945094509091929394565b6000818152600960209081526040808320815160c08101909252805482526001810180546060959484019190610d6490611d43565b80601f0160208091040260200160405190810160405280929190818152602001828054610d9090611d43565b8015610ddd5780601f10610db257610100808354040283529160200191610ddd565b820191906000526020600020905b815481529060010190602001808311610dc057829003601f168201915b5050505050815260200160028201548152602001600382015481526020016004820154815260200160058201548152505090506000610e1f826040015161169c565b90506000610e30836060015161169c565b90506000610e41846080015161169c565b905060008460200151838386604051602001610e609493929190611f7d565b6040516020818303038152906040529050600081604051602001610e84919061211c565b60408051601f1981840301815291905298975050505050505050565b600081815260046020526040902080546001600160a01b0319166001600160a01b0384169081179091558190610ed5826109fc565b6001600160a01b03167f8c5be1e5ebec7d5bd14f71427d1e84f3dd0314c0f7b2291e5b200ac8c7c3b92560405160405180910390a45050565b6000818152600260205260408120546001600160a01b0316610f875760405162461bcd60e51b815260206004820152602c60248201527f4552433732313a206f70657261746f7220717565727920666f72206e6f6e657860448201526b34b9ba32b73a103a37b5b2b760a11b60648201526084016104b6565b6000610f92836109fc565b9050806001600160a01b0316846001600160a01b03161480610fd957506001600160a01b0380821660009081526005602090815260408083209388168352929052205460ff165b80610ffd5750836001600160a01b0316610ff284610441565b6001600160a01b0316145b949350505050565b826001600160a01b0316611018826109fc565b6001600160a01b03161461107c5760405162461bcd60e51b815260206004820152602560248201527f4552433732313a207472616e736665722066726f6d20696e636f72726563742060448201526437bbb732b960d91b60648201526084016104b6565b6001600160a01b0382166110de5760405162461bcd60e51b8152602060048201526024808201527f4552433732313a207472616e7366657220746f20746865207a65726f206164646044820152637265737360e01b60648201526084016104b6565b6110e9600082610ea0565b6001600160a01b0383166000908152600360205260408120805460019290611112908490611f4a565b90915550506001600160a01b0382166000908152600360205260408120805460019290611140908490611de4565b909155505060008181526002602052604080822080546001600160a01b0319166001600160a01b0386811691821790925591518493918716917fddf252ad1be2c89b69c2b068fc378daa952ba7f163c4a11628f55a4df523b3ef91a4505050565b600060076000815481106111b7576111b7611e26565b9060005260206000200180546111cc90611d43565b80601f01602080910402602001604051908101604052809291908181526020018280546111f890611d43565b80156112455780601f1061121a57610100808354040283529160200191611245565b820191906000526020600020905b81548152906001019060200180831161122857829003601f168201915b505050600085815260096020526040902060020154929350505060640361131457600760008154811061127a5761127a611e26565b90600052602060002001805461128f90611d43565b80601f01602080910402602001604051908101604052809291908181526020018280546112bb90611d43565b80156113085780601f106112dd57610100808354040283529160200191611308565b820191906000526020600020905b8154815290600101906020018083116112eb57829003601f168201915b5050505050905061145d565b6000828152600960205260409020600201546042101561134257600760018154811061127a5761127a611e26565b6000828152600960205260409020600201546021101561137057600760028154811061127a5761127a611e26565b6000828152600960205260409020600201541561139b57600760038154811061127a5761127a611e26565b600082815260096020526040812060020154900361145d5760076004815481106113c7576113c7611e26565b9060005260206000200180546113dc90611d43565b80601f016020809104026020016040519081016040528092919081815260200182805461140890611d43565b80156114555780601f1061142a57610100808354040283529160200191611455565b820191906000526020600020905b81548152906001019060200180831161143857829003601f168201915b505050505090505b6000828152600960205260409020819060010161147a8282611e8a565b506106a8836109dc85610d2f565b60008181526009602052604090819020600281015460038201546004830154600584015494517fb5f1e8682e6e4384dcd3e80007fcd53d6550d9cf02f37c95b0f165a1220c6d8f956114e39590916001909101908890612138565b60405180910390a150565b610c5782826040518060200160405280600081525061179d565b6000828152600260205260409020546001600160a01b03166115835760405162461bcd60e51b815260206004820152602e60248201527f45524337323155524953746f726167653a2055524920736574206f66206e6f6e60448201526d32bc34b9ba32b73a103a37b5b2b760911b60648201526084016104b6565b60008281526006602052604090206106a88282611e8a565b816001600160a01b0316836001600160a01b0316036115fc5760405162461bcd60e51b815260206004820152601960248201527f4552433732313a20617070726f766520746f2063616c6c65720000000000000060448201526064016104b6565b6001600160a01b03838116600081815260056020908152604080832094871680845294825291829020805460ff191686151590811790915591519182527f17307eab39ab6107e8899845ad3d59bd9653f200f220920489ca2b5937696c31910160405180910390a3505050565b611674848484611005565b611680848484846117d0565b610cf65760405162461bcd60e51b81526004016104b6906121e8565b6060816000036116c35750506040805180820190915260018152600360fc1b602082015290565b8160005b81156116ed57806116d78161223a565b91506116e69050600a83611e12565b91506116c7565b60008167ffffffffffffffff81111561170857611708611c1e565b6040519080825280601f01601f191660200182016040528015611732576020820181803683370190505b5090505b8415610ffd57611747600183611f4a565b9150611754600a86612253565b61175f906030611de4565b60f81b81838151811061177457611774611e26565b60200101906001600160f81b031916908160001a905350611796600a86611e12565b9450611736565b6117a783836118d1565b6117b460008484846117d0565b6106a85760405162461bcd60e51b81526004016104b6906121e8565b60006001600160a01b0384163b156118c657604051630a85bd0160e11b81526001600160a01b0385169063150b7a0290611814903390899088908890600401612267565b6020604051808303816000875af192505050801561184f575060408051601f3d908101601f1916820190925261184c918101906122a4565b60015b6118ac573d80801561187d576040519150601f19603f3d011682016040523d82523d6000602084013e611882565b606091505b5080516000036118a45760405162461bcd60e51b81526004016104b6906121e8565b805181602001fd5b6001600160e01b031916630a85bd0160e11b149050610ffd565b506001949350505050565b6001600160a01b0382166119275760405162461bcd60e51b815260206004820181905260248201527f4552433732313a206d696e7420746f20746865207a65726f206164647265737360448201526064016104b6565b6000818152600260205260409020546001600160a01b03161561198c5760405162461bcd60e51b815260206004820152601c60248201527f4552433732313a20746f6b656e20616c7265616479206d696e7465640000000060448201526064016104b6565b6001600160a01b03821660009081526003602052604081208054600192906119b5908490611de4565b909155505060008181526002602052604080822080546001600160a01b0319166001600160a01b03861690811790915590518392907fddf252ad1be2c89b69c2b068fc378daa952ba7f163c4a11628f55a4df523b3ef908290a45050565b6001600160e01b03198116811461081d57600080fd5b600060208284031215611a3b57600080fd5b8135611a4681611a13565b9392505050565b60005b83811015611a68578181015183820152602001611a50565b83811115610cf65750506000910152565b60008151808452611a91816020860160208601611a4d565b601f01601f19169290920160200192915050565b602081526000611a466020830184611a79565b600060208284031215611aca57600080fd5b5035919050565b86815260c060208201526000611aea60c0830188611a79565b90508560408301528460608301528360808301528260a0830152979650505050505050565b80356001600160a01b0381168114611b2657600080fd5b919050565b60008060408385031215611b3e57600080fd5b611b4783611b0f565b946020939093013593505050565b600080600060608486031215611b6a57600080fd5b611b7384611b0f565b9250611b8160208501611b0f565b9150604084013590509250925092565b85815284602082015283604082015282606082015260a060808201526000611bbc60a0830184611a79565b979650505050505050565b600060208284031215611bd957600080fd5b611a4682611b0f565b60008060408385031215611bf557600080fd5b611bfe83611b0f565b915060208301358015158114611c1357600080fd5b809150509250929050565b634e487b7160e01b600052604160045260246000fd5b60008060008060808587031215611c4a57600080fd5b611c5385611b0f565b9350611c6160208601611b0f565b925060408501359150606085013567ffffffffffffffff80821115611c8557600080fd5b818701915087601f830112611c9957600080fd5b813581811115611cab57611cab611c1e565b604051601f8201601f19908116603f01168101908382118183101715611cd357611cd3611c1e565b816040528281528a6020848701011115611cec57600080fd5b82602086016020830137600060208483010152809550505050505092959194509250565b60008060408385031215611d2357600080fd5b611d2c83611b0f565b9150611d3a60208401611b0f565b90509250929050565b600181811c90821680611d5757607f821691505b602082108103611d7757634e487b7160e01b600052602260045260246000fd5b50919050565b60208082526031908201527f4552433732313a207472616e736665722063616c6c6572206973206e6f74206f6040820152701ddb995c881b9bdc88185c1c1c9bdd9959607a1b606082015260800190565b634e487b7160e01b600052601160045260246000fd5b60008219821115611df757611df7611dce565b500190565b634e487b7160e01b600052601260045260246000fd5b600082611e2157611e21611dfc565b500490565b634e487b7160e01b600052603260045260246000fd5b601f8211156106a857600081815260208120601f850160051c81016020861015611e635750805b601f850160051c820191505b81811015611e8257828155600101611e6f565b505050505050565b815167ffffffffffffffff811115611ea457611ea4611c1e565b611eb881611eb28454611d43565b84611e3c565b602080601f831160018114611eed5760008415611ed55750858301515b600019600386901b1c1916600185901b178555611e82565b600085815260208120601f198616915b82811015611f1c57888601518255948401946001909101908401611efd565b5085821015611f3a5787850151600019600388901b60f8161c191681555b5050505050600190811b01905550565b600082821015611f5c57611f5c611dce565b500390565b60008151611f73818560208601611a4d565b9290920192915050565b7f7b226e616d65223a2022596f7572204c6974746c652043617420467269656e648152600061088b60f21b8060208401527f226465736372697074696f6e223a20224b65657020796f7572207065742068616022840152651c1c1e48488b60d21b6042840152691134b6b0b3b2911d101160b11b60488401528651612009816052860160208b01611a4d565b8301605281018290526a22747261697473223a205b60a81b60548201527f7b2274726169745f74797065223a202248756e676572222c2276616c7565223a605f820152600160fd1b607f8201526121106121036120f56120ef6120b66120b0612075608088018e611f61565b7f7d2c207b2274726169745f74797065223a2022456e726963686d656e74222c208152680113b30b63ab2911d160bd1b602082015260290190565b8b611f61565b7f7d2c207b2274726169745f74797065223a202248617070696e657373222c2276815266030b63ab2911d160cd1b602082015260270190565b88611f61565b617d5d60f01b815260020190565b607d60f81b815260010190565b98975050505050505050565b6000825161212e818460208701611a4d565b9190910192915050565b86815260006020878184015286604084015285606084015260c060808401526000855461216481611d43565b8060c087015260e060018084166000811461218657600181146121a0576121ce565b60ff1985168984015283151560051b8901830195506121ce565b8a6000528660002060005b858110156121c65781548b82018601529083019088016121ab565b8a0184019650505b505050505060a09390930193909352509695505050505050565b60208082526032908201527f4552433732313a207472616e7366657220746f206e6f6e20455243373231526560408201527131b2b4bb32b91034b6b83632b6b2b73a32b960711b606082015260800190565b60006001820161224c5761224c611dce565b5060010190565b60008261226257612262611dfc565b500690565b6001600160a01b038581168252841660208201526040810183905260806060820181905260009061229a90830184611a79565b9695505050505050565b6000602082840312156122b657600080fd5b8151611a4681611a1356fea2646970667358221220b71335851fa8ceabf395ed2621ec1a298becef52745fd03797f6cef39544350964736f6c634300080f00336261666b726569656e6e6f626935616f707372686e6834326f727871757761336d6573733236776d6f6d6c656865743669646762753672736533616261666b72656961323370706d736935693337677175743275657967656c3232347a6b7032656b656c65716e72346672787570706a676b346877656261666b726569623572746663716664687066667078797665676f3576326633696b706f6d3268616434717570786a3279666c3570626765646f716261666b72656965356836636e6163786a626a63673772367532726370376b36746b6f79666c6c327678766769736565757175726e333465336d616261666b726569636b6b617636376e74326736787162686e6a636e356d777179326a6b6e33706c343366627062657079337462653375356869746d",
    "linkReferences": {}
  },
  "methodIdentifiers": {
    "approve(address,uint256)": "095ea7b3",
    "balanceOf(address)": "70a08231",
    "catHolders(address)": "cabaee06",
    "catOwnerAttributes(uint256)": "08ae9f60",
    "checkUpkeep()": "a13abdad",
    "feed()": "37a7b7d8",
    "getApproved(uint256)": "081812fc",
    "gotchiStats(uint256)": "34147645",
    "isApprovedForAll(address,address)": "e985e9c5",
    "myGotchi()": "bee437ed",
    "name()": "06fdde03",
    "ownerOf(uint256)": "6352211e",
    "passTime(uint256)": "b09d662a",
    "performUpkeep()": "6e4d243a",
    "play()": "93e84cd9",
    "safeMint(address)": "40d097c3",
    "safeTransferFrom(address,address,uint256)": "42842e0e",
    "safeTransferFrom(address,address,uint256,bytes)": "b88d4fde",
    "setApprovalForAll(address,bool)": "a22cb465",
    "supportsInterface(bytes4)": "01ffc9a7",
    "symbol()": "95d89b41",
    "tokenURI(uint256)": "c87b56dd",
    "transferFrom(address,address,uint256)": "23b872dd"
  },
  "id": 11
}